:020000040000fa
:10000000f03f002089230000232000005f22000031
:1000100000000000000000000000000000000000e0
:100020000000000000000000000000006b2800003d
:1000300000000000000000006b2800006b2800009a
:100040006b2800006b2800006b2800006b28000064
:100050003d1d00006b2800006b2800006b2800008d
:100060006b280000252000006b2800006b28000092
:100070006b2800006b2800006b2800006b28000034
:100080006b2800006b2800006b2800006b28000024
:100090006b28000000000000000000006b2800003a
:1000a0006b2800006b2800006b2800006b28000004
:0800b000000000006b280000b5
:020000040000fa
:1000b800f8b5c046f8bc08bc9e467047212300002e
:1000c800f8b5c046f8bc08bc9e467047f922000047
:020000040000fa
:0800d800d00e00000100000041
:020000040000fa
:1000e0000023f0b506001500afb005910193059906
:1000f0000b78002b00d10fe101235b420a930eab7a
:1001000000240c93802309940b940d930b5d002b1a
:1001100001d0252b2ad1002c06d02200300002f07d
:100120006dfb059b1b190593059b1a78252a00d0aa
:10013000e7e0013302930593022310219c46082730
:10014000059803782b2b1bd025d8202b1bd0232bd5
:100150001dd02a2b2ad002f005fa0b90059b1a78a5
:10016000303a092a33d801330593f7e70134cde754
:100170000122099b80180393134309930590dfe73d
:100180000423099a0ee0099b03933b430be0099b70
:1001900003930b4307e02d2bead0302bd9d16246d5
:1001a000099b0393134309930130e7e72b68013060
:1001b0001a1d1b6805902a600b93002b07da099a19
:1001c0005b420392012203990b934a400992099bd7
:1001d000da0702d5022293430993059b1a782e2a47
:1001e0000ed10022581c0a9205905a782a2a28d14a
:1001f000023305932b681a1d1b682a6003930a9328
:1002000005a802f067fb059b0700187802f01cfeaa
:10021000692800d183e035dc632800d1d6e01bdcff
:10022000252800d1dfe0612859d0252306aa1370c4
:10023000029b0593002309930b93013b0a9302331e
:10024000b2e002f08ff90a90059b1a78303a092a39
:10025000d6d801330593f7e7642860d06728e4dc3b
:100260002a00390006a802f007fc002800d1a9e006
:10027000059b09a95a1c05921b7806aa300002f0ba
:1002800020fe3de0702800d17de016dc6e2800d114
:1002900091e06f28c9d12b000022390006a801f097
:1002a000ddf8002800d18de0059b06aa013309a9dd
:1002b0003000059301f008fc22e0752840d0782832
:1002c0004fd07328b1d1802f00d07be0059b2a68e6
:1002d00001330593131d2b601268002364e02a008c
:1002e000390006a802f0c8fb002800d16ae0059b8f
:1002f00009a95a1c05921b7806aa300002f0e1fdfc
:100300002418019b1c19a34200dc74e04f223b4bd4
:100310001a6001235b42019301982fb0f0bd2b00be
:100320000122390006a801f099f800284ad0059b5f
:1003300006aa013309a93000059300f0e5ffdfe7c5
:100340002b000022390006a801f088f8002839d0d7
:10035000059b06aa013309a93000059301f036fe7a
:10036000cee72b000022390006a801f077f800281c
:1003700028d0059b5a1c05921b7806aa09a93000b3
:1003800000f06afcbce72b000022f02106a801f077
:1003900065f8002816d0059b079a01330593069b44
:1003a000134306d1164a163209a9300001f0b8feef
:1003b000a6e77823e1e7019b39001a1906a82b006c
:1003c00001f024fc059b013305939ae7802ff9d1b6
:1003d000059b013305932b681a1d1b682a6006aa2a
:1003e00013700123e0e7802fecd1059b06aa0133af
:1003f00005931070f5e7019479e6c046b40a002031
:04040000ac2c000020
:020000040000fa
:1004040030b583b0a84b5b78002b24d1a74b0122d5
:100414001a70a54b0c321a700b3a5a70a34b1b7806
:10042400002b33d0a14d00232b70a14c2379012242
:10043400934323719f4bdb6964209847206861686c
:1004440001f038fd28709c48643002f051fb964b53
:100454000c221a701ae0012b1ad1944b00221a7044
:10046400934c2379013293432371924bdb696420cb
:1004740098472068616801f01dfd8b4b02225a7079
:100484008a4b00221a70884b0b321a7003b030bdad
:10049400854b1a780d2af9d89300884ad3589f4679
:1004a400874b1b78002bf1d0804c0023237002f083
:1004b40029fa207083481c3002f01afb7a4b01227f
:1004c4001a70e3e7794b1b78002bdfd0774d0023bc
:1004d4002b707c4c20003030052101f061fb28702a
:1004e4002000383002f004fb6f4b02221a70cde773
:1004f4006e4b1b78002bc9d06c4c00232370724bbd
:10050400187801f0a9fc20706e48483002f0f0fa27
:10051400654b03221a70b9e7644b1b78002bb5d0e6
:10052400624c0023237001f0fbff207065485430b7
:1005340002f0defa5c4b04221a70a7e75b4b1b78cf
:10054400002ba3d0594d00232b705e4c2300643341
:10055400626e00921b796a461371684602f054fc7d
:10056400c1b2684601f018fc287020006c3002f01b
:10057400bffa4d4b05221a7088e74c4b1b78002bb1
:1005840000d183e7494c0023237001f09dfd2070c6
:100594004c487c3002f0acfa434b09221a7075e7e0
:1005a400424b1b78002b00d170e7404c0023237092
:1005b40002f0a8f9207040480c3002f099fa3a4b46
:1005c40006221a7062e7394b1b78002b00d15de7d5
:1005d400364c0023237038480c21203001f0aafa4d
:1005e4002070314b0a221a7050e7304b1b78002bd5
:1005f40000d14be72d4c0023237002f083f92070c7
:100604002d48303002f074fa274b07221a703de768
:10061400264b1b78002b00d138e7244c0023237091
:1006240002f03af82070204b08221a702ee71f4b74
:100634001b78002b00d129e71c4c0023237002f007
:100644000df82070002808d1194a137801210b43b2
:100654001370154b0b221a7018e71c4b01221a70e9
:1006640015483c3002f044faeee7104b1b78002b9f
:1006740000d10be70d4d00232b700d4c2379012283
:10068400134323710b4bdb6964209847206861682e
:1006940001f010fc28700848503002f029fa024b8f
:1006a4000d221a70f2e6c046bc0a0020c40a0020db
:1006b4008c0a0020942b0000200f0000c4270000a7
:1006c400c20a0020a00e0000c60a0020c30a0020af
:020000040000fa
:1006d400700a00201c000000000000001806002022
:1006e400c000000000000000d806002080000000c8
:1006f40000000000580700208000000000000000f7
:10070400d00900204000000000000000be0a0020c4
:100714000100000000000000b80800206400000090
:1007240000000000bf0a00200100000000000000db
:100734009c0a00200400000000000000c00a002001
:100744000100000000000000c10a002001000000b8
:1007540000000000a00a00200400000000000000c7
:10076400a40a0020040000000100000000010000b1
:10077400a80a0020040000000100000030303030de
:10078400100a002040000000000000001c090020a6
:1007940064000000000000008c0a00200800000033
:1007a40000000000c20a0020010000000000000058
:1007b400bc0a00200200000000000000c30a002060
:1007c4000100000000000000c40a00200100000035
:1007d40000000000c50a0020010000000100000024
:1007e40001000000c60a0020010000000100000012
:1007f400c0000000ac0a002004000000000000005b
:10080400800900205000000000000000d8070020ec
:100814007800000001000000e8070020e007002045
:10082400e807002000000000000000002500000090
:100834000800002000040000000000000000000088
:1008440000000000000000000000000000000000a4
:100854000000000000000000bd2e000000000000a9
:10086400000000000000000000000000d91c00008f
:100874000000000000000000000000000000000074
:100884000000000000000000000000000000000064
:10089400000000200804000000000000500a0020ae
:1008a400200000000100000001000000030000001f
:1008b4000000000000000000000000000000000034
:1008c40000000000940a0020940a002008000000a0
:1008d40000000000b00a0020040000000000000036
:1008e400b40a0020040000000000000008040020f6
:1008f4001002000000000000500800206800000002
:1009040001000000010000000300000000000000de
:1009140000000000000000000000000000000000d3
:10092400fd1d0000000000000000000000000000a9
:10093400712e0000a32e0000000000000000000043
:1009440000000000000000000000000000000000a3
:100954000000000000000000000000000000000093
:10096400000000000000000000000000b80a0020a1
:10097400040000000000000000000000000000006f
:020000040000fa
:10098400f0b587b0039003a801f00afe002802da4c
:10099400002007b0f0bd039b1b095d1e202d09d963
:1009a4004f49023b4f4a8b4224d8db08d318043bff
:1009b4001d7801352a000120002102f0b5f9002438
:1009c40043428c4100930194474f00983a687b68f6
:1009d4001040020001990b401a433fd1039b05a824
:1009e4001033059302f0c3f9002809d10c223f4bc0
:1009f4001a60cee7db09d318043b1d781135d9e71b
:100a04003b490c68a04206d0059b0400103b0593ab
:100a14000123103483600125059be2180a602b43ef
:100a2400083a083c28c26360002cb1d0200001f0d1
:100a340081ff00280bd023686168ab43e31a5a682e
:100a4400aa4352185a606168a94362501c002000ee
:100a5400039902f089f8200008309ae7214a2549d1
:100a64003c32002831d1584203404b43db0ed65c64
:100a74002036300002f0d0f8731cdb00fc58083b31
:100a8400fb189c42a0d0272e25dd0235ae4201dca6
:100a94003f2e20d101226368039f9343dd1b28006e
:100aa400009301f017fe864215d1e268a168e319ac
:100ab400da60996093609a68d360012217431f60db
:100ac4005d60009be5506760c1e7434203404b43d0
:100ad400db0ed65ccde73100200001f06ffbb6e7fa
:100ae400ff010000701f000010040020b40a002061
:080af4000804002029e66b074d
:020000040000fa
:100afc00f8b504004d4b1b68002b18d000200f27b5
:100b0c004b4e06e0421cd2b231540f2b0bd91000c5
:100b1c002b001d093a001a4011003731092af1d86f
:100b2c0030321100eee7434b1960404b1d604249d7
:100b3c00200001f085ff002807d000233f4a1370e6
:100b4c003f4a13703f4a1370f8bd3b490c312000eb
:100b5c0001f076ff002803d03a4b01221a70f3e71c
:100b6c0035491831200001f06bff002844d0354b7b
:100b7c0000221a7000233449e25c5a540133312ba1
:100b8c00fad1314c04220821200001f043ff082245
:100b9c000d21200001f03eff08221621200001f05b
:100bac0039ff08221f21200001f034ff04222821e4
:100bbc00200001f02fff04222d21200001f02aff3c
:100bcc004f2002f0c5f8542002f0c2f8412002f088
:100bdc00bff8412002f0bcf82c2002f0b9f830200c
:100bec0002f0b6f8312002f0b3f80d2002f0b0f8a4
:100bfc000a2002f0adf8a7e70f492031200001f0e0
:100c0c001fff002806d00e4b01221a700d4b00223c
:100c1c001a7099e708492c31200001f011ff0028c7
:100c2c0000d191e7054b01221a708de7a40a002030
:100c3c00a80a0020a00a00206c280000bf0a00208f
:0c0c4c00be0a0020c10a0020b8080020e9
:020000040000fa
:100c5800f0b58fb00d934b680c9008938b680d001e
:100c68000993cb6816000393089b0f68002b60db81
:100c780002239f4310233b400a933368059373680c
:100c88000693099b04930a9b002b06d0059b069aa2
:100c9800134302d0099b023b049308233b400b9368
:100ca8005a1e9341049ad31a04932b69039a5c1e23
:100cb80000231355089b0793012c10dd059b069a0a
:100cc800134339d1079b002b36dc089a049b9b1ae7
:100cd800079a9b18002b02dd02231f422cd10a9b86
:100ce800002b0bd00cce134308d0039b0d9a1b1975
:100cf800013b1a703023039a023c13550b9b002bbf
:100d080003d02023039a013c13552b6900975a1ee0
:100d1800039b121b19190c98099b00f05bfe0c9b96
:100d28005b68db0503d56b68984200da18000fb0e2
:100d3800f0bd012308939de70f22059b013c13405a
:100d480018005730092b01dc303318000d9b413b4c
:100d5800192b06d820230343613b192b01d802f035
:100d680076f8039b1855079b013b0793069b1a07c8
:100d7800059b1b091a43069b05921b0906939be7d3
:020000040000fa
:100d8800f0b5de4657464e464546e0b583b00029e5
:100d980000d179e000243d4fb8463d00bb4684466b
:100da800080008e03a4a4e4656545a469360631c77
:100db8000134984258d9374b5a6807231340012bfe
:100dc8001dd0a968eb6899464b1c2a699342924149
:100dd8001340994549d06246125d91462d4a5268a2
:100de8009246072256463240012adbd14900284a5a
:100df8004e46565401310022254e7254d5e7b96843
:100e0800fb6899464b1c3a699342924113409945b5
:100e18002bd0620001266644b65c3602b1466646af
:100e2800b25c4e46324301921a4e7668b2460726a5
:100e3800b14656464a461640012e07d06a461279f0
:100e4800134e725442469360631cb1e74900019afd
:100e58009246d2b291460e4a4e46565401315246f7
:100e6800120a0b4e7254ede71c0001f0e3fe002855
:100e780002d0084b01229a75200003b03cbc904672
:100e88009946a246ab46f0bd0c00eee7d00900201b
:080e9800580700200008004289
:020000040000fa
:100ea0004d6f74696f6e2044657465637465640d7d
:100eb0000a436f756e743a25640d0a00496e6974b1
:100ec00069616c697a656420524e42440d000000ed
:100ed0003135343837000000456e74657265642022
:100ee000434d440d000000004e616d652073657434
:100ef0000d00000050726f66696c65207365740d9b
:100f00000000000031323334000000005365637587
:100f100072697479207365740d00000050696e2049
:100f2000636f6d706c6574650d0000005265626fd3
:100f30006f7420636f6d706c6574650d0000000048
:100f400039433935364534303644393500000000f0
:100f5000436f6e6e656374696e670d00456e7465f0
:100f600072656420524d54206d6f64650d00000061
:100f7000536574206770696f2070696e20686967b7
:100f8000680d0000536574206770696f2070696e8a
:100f9000206c6f770d000000496e697469616c699f
:080fa0007a696e670d00c0467e
:020000040000fa
:100fa800f0b5060085b00f0015001c008b4265d80f
:100fb80001d1824262d82100280001f0bffe390029
:100fc8000090300001f0bafe009b21001b1a1a00a5
:100fd8002800039301f0a6fe00900191019bbb42fb
:100fe80046d802d1009bb34242d8009b019c039a89
:100ff80001200021f61aa74101f094fe039b002b63
:101008002fd0019b009adb0754081c43019b5d0805
:10101800039b9c46bd422ed801d1b4422bd8320046
:101028003b00121bab41012692185b410027b61802
:101038005f4101235b429c446346002bead180193f
:101048007941039a04000d003000390001f05efe7a
:10105800039a06000f0001f065fe241a8d41200056
:1010680029000a9b002b01d01e605f6005b0f0bd0f
:1010780000200021c2e7b6197f41dae700200021ed
:02108800efe790
:020000040000fa
:02108a007047ad
:020000040000fa
:10108c00f0b5c64600b5324d2e00a8462f0019e02b
:10109c004246126a002a25d0796a3b6a0120984799
:1010ac00bb6a01333a6b9342924113401ae0284acf
:1010bc00926ae4b227498c54254a93623423d35c58
:1010cc00002b23d1244b1b7e5b073dd5224b1c8d63
:1010dc00a4b2ab6a01332a6b934292411340f26a79
:1010ec009a42d5d01a4ad26a9a42ebd01a4a51681f
:1010fc0007220a40012adad1154a926a5200e0b25c
:10110c00144988540132240a8c54d5e701f09efd11
:10111c000f4b1b6a002bd5d00d4b596a3c229b5ca4
:10112c00002b08d00a4b9b6b9842cbd3084b1b6a05
:10113c0000209847c6e7064b9b6b9842c2d1044be4
:10114c001b6a00209847bde704bc9046f0bdc04622
:0c115c00d0090020d80600200008004246
:020000040000fa
:10116800f0b5d64600b582b02f4e37002f4d01227c
:1011780014e05c002e48005d824668465146817145
:1011880001342b490c5dc471013318e06b460633fa
:101198001b782b85244b1b7d002b20d12b7e1342e3
:1011a8003dd0b068f368984236d06c68072020407c
:1011b8000128ded01e48c45c684684710133386952
:1011c8008342804103401849cb6068680723034085
:1011d800012bdbd16b4606331b882b85dae701f040
:1011e800cffd114b1b68002bc0d00f4b59681b7fdc
:1011f800002b08d00c4b9b699842b7d30a4b1b684d
:1012080003209847b2e7084b9b699842aed1064b3a
:101218001b6803209847a9e7044b01221a7502b0fe
:1012280004bc9246f0bdc046d00900200008004228
:041238005807002033
:020000040000fa
:10123c00f7b5002858d00838436801221e009643a1
:10124c0085192a680400934200d0ffde01276b68e1
:10125c00226813403b420ed1200001f067fb0028ae
:10126c0043d1280001f0a9fb0028f0d06b68bb43e8
:10127c00f618ed18ebe73b003343636030002b604e
:10128c0001f024fa019001f0c3fc6b682268134052
:10129c003b42e1d0184b019a1868596801f034fdb3
:1012ac00384212d1019a0120002101f039fd0b00c6
:1012bc00002804d0104a126802430f480260002b29
:1012cc0003d00d4a53680b435360019b0a4a013308
:1012dc00db00d3181a005b68083a66602e60e36086
:1012ec00a260d460e3689c60f7bd2368bb43e41a3a
:0c12fc006368bb43f618b4e71004002040
:020000040000fa
:10130800f0b54b6889b005930b6807009c460793b6
:10131800cb680c008e68049310685168cd0f44d0d8
:101328000b000200002150429941059b002b08db6d
:101338000222634693430793002d02d1079b5a0765
:101348002ad5731e07aa02920a22009301920b0063
:101358000200200000f0c1fa002d02d1079b5a07b5
:101368001ed501382d23002d00d1023b049a1354b9
:1013780023695a1e049b121a1918079b38000093f8
:10138800330000f027fb7b68db0503d563689842d0
:1013980000da180009b0f0bd1b07db0ff31ad1e71c
:1013a8001b07e5d501382023e0e7059b002bbfdab2
:0213b800c4e788
:020000040000fa
:0213ba0070477a
:020000040000fa
:1013bc00f0b5d6464f464646c0b504000d009146e2
:1013cc009846214bde681f0001e07b689847b047c8
:1013dc000028fad12900200001f01ef900251a4f2f
:1013ec0003e00120fb6998470135b047041ef8d093
:1013fc00412df6d90025144f144b9a4604e07b6816
:10140c0098475346e8540135b0470028f7d1a84512
:10141c0013d1002d16d00d4b1a784b461b789a42df
:10142c000bd10023094e01339d4205d0995d4a46ec
:10143c00d25c9142f7d000e020001cbc904699464b
:10144c00a246f0bd2000f8e7942b00001c090020f8
:020000040000fa
:10145c0030b5882933d015dc812941d003dc8029b3
:10146c003ed0002030bd822911d08429f9d11c68ce
:10147c0002cc1c60002a1ed009b20160c917416061
:10148c000120efe7a02923d00adc9029e9d1072419
:10149c0019680731a14330c9196004604560efe752
:1014ac00c02901d0f029dcd11a68111d196013680c
:1014bc000360002312e089b201604260e0e71c681f
:1014cc0002cc1c60002a01d049b2d6e7c9b2f3e7be
:1014dc001a68111d196013680360db174360cfe7ae
:1014ec0019680c1d1c600b680360002ae5d0f4e73a
:020000040000fa
:1014fc001d4b00229a619a8c80218a439a841a008f
:10150c001023d1680b42fcd0184b1b689b0e3f2b51
:10151c0027d09b02802292001343134a936210231c
:10152c00d1680b42fcd0104b02229a841a00102373
:10153c00d1680b42fcd00e4b0e4a5a601a005378fd
:10154c005bb2002bfbdb0a4b0b4a5a800b4a5a80ce
:10155c000b4a5a800b4b0c4a1a62034b00221a623c
:10156c007047203bd5e7c04600080040246080004f
:10157c00000c004000070100054000001440000072
:0c158c0019400000000400408400010031
:020000040000fa
:10159800f0b5de4657464e464546e0b502002048bf
:1015a800c36a856a002935d0ab4236d014000120c1
:1015b8001c4eb44607271c4eb046b146013a924627
:1015c80010e04a46d25c564632540133144a126b34
:1015d800934292411340884213d2421c0234ab42d8
:1015e80010d01000624652683a40012ae9d15a00e8
:1015f8004646b65c267001324646b25c62700133dc
:10160800e4e71d00064bdd623cbc90469946a246c5
:10161800ab46f0bd1d000800f4e70020f2e7c04625
:0c162800d009002000080042d806002075
:020000040000fa
:10163400f0b5c6461f4a204b00b50021934203d2a1
:10164400197001339342fbd10b231c4a9c46083b7f
:1016540098461368546819000026214311d01700d6
:1016640091680c3700290fd11a19002c03d01e7071
:1016740001339342fbd13a001368546819002143a3
:10168400edd104bc9046f0bd6146c91a1d1951182c
:10169400002c05d05a1c505c187013009542f9d1e7
:1016a400434623405a1e9341a4081c19a4003f1921
:1016b4003a00e1e70000002000000020d40600000a
:020000040000fa
:1016c400002934d00123002210b488422cd30124f1
:1016d4002407a14204d2814202d209011b01f8e786
:1016e400e400a14204d2814202d249005b00f8e73f
:1016f400884201d3401a1a434c08a04202d3001b6b
:101704005c0822438c08a04202d3001b9c0822439d
:10171400cc08a04202d3001bdc082243002803d0db
:101724001b0901d00909e3e7101c10bc704701b57f
:10173400002001f0c7fb02bd0029f8d003b5fff774
:0c174400c1ff0ebc4243891a1847c04682
:020000040000fa
:1017500010b51e4a137801210b43137053785bb206
:10176000002bfbdb19491a4b8b61db0bcb61882308
:101770001b01cb60174b10221a721a7520201a54c5
:101780000c301a540c301a540c301a540c301a54b1
:101790000c3007241c540c301a540c301a540c30e2
:1017a0001a540c3004341c540c301a540c301a5493
:1017b0000c301a540c301a540b78022213430b705d
:1017c0000a0053785bb2002bfbdb10bd0018004011
:0817d0000200001018060020c1
:020000040000fa
:1017d8001d4b1e4a1a601e4a9a81c02292025a6004
:1017e8001a00d369002bfcd1174a136802210b4356
:1017f8001360d369002bfcd1164b00221a629a623f
:10180800da6234215a5408315a549a630021da872b
:101818001a609a60da60197519779a610a4b5a68e2
:1018280007231340012b09d00a4b80221a631a613f
:10183800054b80229a757c3a9a757047054b402271
:101848001a631a61f4e7c046000800420401104018
:081858002bf6ffffd009002070
:020000040000fa
:10186000f0b51600050002278369426987b002932c
:10187000d31a03939b1904910596019302ac3a0085
:101880002100286801f05ef9019b984208d1ab68fd
:10189000ea68ab619a18aa626b61300007b0f0bdcc
:1018a00000280cda102200236968ab620a43ab619e
:1018b0006b616a60022f12d06368f61aede7019b34
:1018c0001b1a01936368984202d9c01a0834013f79
:1018d00023681b1823606368181a6060cfe71e0036
:0218e000dbe744
:020000040000fa
:1018e200f0b5050085b019000c9b100001931a6831
:1018f2002b696c68013bef681d00002c00da0124a3
:101902000026fe540a9e0123361b0296022616402a
:101912000b9ad2170392002d04dc002b17d028005b
:1019220005b0f0bd02000a4307d1002c05dc029a83
:101932001219002af1dd002eefd00b9a039b00f062
:1019420050fe013d130030327a55013ce3e710238b
:0e195200019a12689a431300019a1360dfe7ae
:020000040000fa
:10196000f8b5846a05000f001600002c0ad0ab6a97
:101970006a699b1ab3420cd2320039002800fff783
:101980006fff05e001f0a0f903002000002beed06e
:10199000f8bd002ef0d02b0034331b785bb2002b47
:1019a0001adb3400dbb2621eb95c994212d122000c
:1019b00039002800fff754ffa042e9d33f19341b38
:1019c00022003900686901f010fa6b6930001c19b7
:0c19d0006c61dde7141ee6d13400f1e785
:020000040000fa
:1019dc00f0b51e00012389b014000e9a07001a40be
:1019ec000291019220d1b4421eda351b03952a00d4
:1019fc00102d00d91022202104a801f0f9f90f2d87
:101a0c001bdc0f22039b04a913401a00380000f0c2
:101a1c00effe019b002b04d122000299380000f04c
:101a2c00e7fe300009b0f0bd22000299380000f04a
:101a3c00dffeb442d9db2600f3e7102204a93800fc
:081a4c0000f0d6fe103ddae7c0
:020000040000fa
:101a5400f0b583b004000f0000920193164bde68ca
:101a64001d0001e06b689847b0470028fad139009f
:101a7400200000f0d5fd104bdf691048b847002462
:101a840002e00120b8470134b0470028f9d0412cc6
:101a9400f7d90024084d0a4f03e06b689847e055d6
:101aa4000134b0470028f8d12300019a0449009872
:101ab40000f08cfc03b0f0bd942b0000b80b0000c8
:041ac4001c090020d9
:020000040000fa
:101ac800f0b50b680c008f68cd68496887b00600d0
:101ad8000593002902db02218b43059305a953686e
:101ae800126802910821009701912000fff7f5fe86
:101af800059bdb0602d5302301382b54059b1b07b9
:101b080002d5202301382b54236929185a1e059b16
:101b1800121a009330003b00fff75cff7368db0587
:0e1b280003d56368984200da180007b0f0bddc
:020000040000fa
:021b36007047f6
:020000040000fa
:101b380070b584b00c006a46164b2c3362cb62c277
:101b48001b881380144b43221a70173a5a7030219d
:101b58009970da70002c08d000230f4dc15cea1888
:101b680011710133dab29442f8d80b4d231ddbb260
:101b78000d22ea54631ddbb2033aea54684601f0c9
:101b880041f9c3b20634e1b26a462800fff75effa6
:0c1b980004b070bd741c0000100a002096
:020000040000fa
:101ba40030b585b001aa164b183330cb30c21b8830
:101bb4001380144b53221a70053a5a70223a9a70c1
:101bc40000291ad000230f4dc45cea18d4700133e5
:101bd400dab29142f8d80b000a48da1cd2b20d24ca
:101be40084540433dbb20a22c2540531c9b20a2335
:101bf40001aafff7e1fb05b030bd0b00ece7c046de
:081c0400741c0000100a00200e
:020000040000fa
:101c0c0010b584291fd007dc812915d0822922d058
:101c1c00802911d0002010bd90291cd008dc882907
:101c2c00f8d119680c1d1c600b6803601a7010e069
:101c3c00a02901d0c029edd119680c1d1c600b68be
:101c4c0003601a6005e019680c1d1c600b680360ca
:101c5c001a800120dfe719680c1d1c600b680360fb
:081c6c001a60d2175a60f4e778
:020000040000fa
:101c7400434d443e20000000524d543e20000000dd
:101c8400454e440d0a000000414f4b0d0a434d449c
:101c94003e200000534543555245440025535452b9
:101ca40045414d5f4f50454e250000005265626f1f
:101cb4006f74696e670d0a005265626f6f742061fc
:101cc4006674657220466163746f7279205265731d
:041cd40065740d0a1c
:020000040000fa
:101cd8007fb51600c2680d0013000091591e8b4194
:101ce800f31a01938368040003926946022200688c
:101cf800029300f00fff002808dc18220823024096
:101d08005340626813436360060010e0019b8342fe
:101d1800fad2a268c01ae3681018e2632064002ba4
:101d280005d0531ce3631378ad19013d2b703000c7
:041d380004b070bdc6
:020000040000fa
:101d3c00f8b50026144f3c0004e0144b1d6101362d
:101d4c00102e1fd073009b199b00fb181b7adbb263
:101d5c00f1b28b42f3d10d4b1b690125b5401d42ed
:101d6c00edd073009b199b0007495b58002be4d006
:101d7c00730099198900611848689b199b001b59bd
:101d8c009847dae7f8bdc046180600200018004056
:020000040000fa
:101d9c0030b585b001aa144b183330cb30c21b8838
:101dac001380124b53221a70033a5a70243a9a70c9
:101dbc00002908d000230d4dc45cea18d4700133ff
:101dcc00dab29142f8d80948cb1cdbb20d22c254ce
:101ddc000b1ddbb2033ac2540531c9b20a2301aa66
:101dec00fff7e6fa05b030bd741c0000100a0020a5
:020000040000fa
:101dfc0037b504000d00002801d100203ebd43681a
:101e0c009b0607d543698269934217d80023a362c6
:101e1c00a3616361e26b236c9a4206d20121d21a50
:101e2c00d3170091206801f04bf800232364e3637f
:101e3c009d42e2d0206801f033f8dfe70022c36a4c
:101e4c00110098476369002be0d101204042d5e78f
:020000040000fa
:101e5c0010b584b001aa134b183312cb12c21b88d5
:101e6c0013800209104b532119705970273999703e
:101e7c0013005733092a00d8273b0b4ad3700f2382
:101e8c00184003005733092800d8273b0648037134
:101e9c000d234371033b837101aa0721fff788fad5
:0c1eac0004b010bd741c0000100a0020df
:020000040000fa
:101eb80070b582b0c0b2c406e40f30340f220240bd
:101ec8003032cdb2eb06db0f30330f487c21017086
:101ed8002d3941702c2686701f39c17001714471eb
:101ee8008271c67101724172837221392940303181
:101ef800c1720d230373033b43730e2100f08efb65
:0c1f0800012002b070bdc046100a00208d
:020000040000fa
:101f140000230e4a10b513600d4a13600d4a136076
:101f24000d4a13600d4a13600d4a53621361013365
:101f3400936000f071ff00f02afe0a4c0a4b9c42a9
:101f440000d310bd08cc9847f8e7c046b00a00207b
:101f54008c090020880900208009002084090020c1
:0c1f640090090020c4000000c80000002c
:020000040000fa
:101f7000202122232424252526262727282828280f
:101f8000292929292a2a2a2a2b2b2b2b2c2c2c2ca9
:101f90002c2c2c2c2d2d2d2d2d2d2d2d2e2e2e2e71
:101fa0002e2e2e2e2f2f2f2f2f2f2f2f00011702e7
:101fb0001d1813031e1b190b1408040d1f161c12e9
:0c1fc0001a0a070c1511090610050f0e77
:020000040000fa
:101fcc00f0b50b680c008f68cd68496887b00600c7
:101fdc000593002902db02218b43059305a9536865
:101fec00126802910a21009701912000fff773fcff
:101ffc00236929185a1e059b121a009330003b00c6
:10200c00fff7e6fc7368db0503d56368984200dada
:06201c00180007b0f0bd42
:020000040000fa
:02202200fee7d7
:020000040000fa
:1020240010b5134b9b7d002b1ad0114a137edbb2e3
:10203400927d52b2002a14db0d4a137edbb2927dec
:10204400d20703d5db0701d5fff78cf8084a137ec6
:10205400dbb2927d520703d55b0701d5fff714f875
:1020640010bd5bb2002be7da00f0f8f8e4e7c046f5
:04207400000800421e
:020000040000fa
:10207800f8b505000c000020002d20d000f0b6fcbb
:10208800002c17d000200e4a0421072605e0178de2
:102098004300ef52013084420dd0137e0b42fcd036
:1020a800538b334207d153683340012befd0138d44
:1020b8002b54efe72000201a44426041c0b2f8bd1b
:0420c800001c0042b6
:020000040000fa
:1020cc0010b584b001aa104b3c33110011cb11c1d7
:1020dc00188808809b788b700c4852230370263b21
:1020ec00437005338370243b0371033b437101330d
:1020fc000521fff75df90400054bdb69fa209847d1
:10210c00200004b010bdc046741c0000100a002052
:04211c00942b000000
:020000040000fa
:10212000f0b50f0087b0039015001049072204a8ee
:102130001c0000f05afebb687e6802933f68002dc9
:1021400000d104ad002c03d1280000f05ffe040094
:10215000002e02dbb44200d934000097029b22001b
:1021600029000398fff73afc07b0f0bdb42e000039
:020000040000fa
:1021700070b5040016001d00022a1cd043689b069f
:1021800019d4002908d1002d01d18025ed002800a7
:102190000830fef7f7fb010020236268a1601343bb
:1021a00063602300e5603433ff22012e00d10a2250
:1021b0001a70024be362002070bdc0466119000036
:020000040000fa
:1021c00070b5c668856804000a00ae4211d10120ce
:1021d000002100f0abfdc043c943431c03d00b4baf
:1021e0001a68104018604b1c03d0084a5368194005
:1021f0005160012319006268b56011439a43ee6093
:102200006160a41822681343236070bd100400208d
:020000040000fa
:1022100037b56b46dd1d836a04002970002b0cd096
:102220006369a26a93420fd3e36a01222900200066
:102230009847012805d1287805e000f045fd0028e1
:10224000eed0012040423ebd220034321278287880
:0e22500052b29042e8d05a1c62611870f3e757
:020000040000fa
:02225e00fee799
:020000040000fa
:1022600010b5104b5b8b0722134000d110bd0e4af6
:10227000d3870c4b80221a76793a5a831b7e5b07f0
:1022800005d5084b04211a8d1a7e0a42fbd1064b54
:102290001b6a002bead0044b596a1b6a022098473c
:0c22a000e4e7c04600080042d00900201e
:020000040000fa
:1022ac0010b50f4b06225a600e4b1b6818680021a4
:1022bc0000f08cfd0c4b1b681868002100f086fdab
:1022cc0000f038f8fff714f900f0c6fdfff77efabe
:1022dc0000f056fafff736fa00f0fef810bdc046d3
:0c22ec0000400041dc0700206c0a0020cc
:020000040000fa
:1022f80010b5064c2378002b07d1054b002b02d0d4
:10230800044800e000bf0123237010bd700a0020bc
:102318000000000000000000044b10b5002b03d0a3
:102328000349044800e000bf10bdc046000000009b
:08233800740a002000000000ff
:020000040000fa
:1023400010b5104b80221a600021393a9954463a50
:1023500048201a5401301a540d301a5401301a54be
:1023600024381954013022241c543138193418559a
:1023700090341a550b341a55b43299540632985485
:0823800010bdc04600440041fd
:020000040000fa
:1023880010b50a4b98470a4b9847fff74ff9094b86
:10239800ff229343084a9360084b9847084b984795
:1023a800084b984700f078f8fee7c046371b000056
:1023b800371b00000000000000ed00e0151f0000c2
:0823c800371b0000371b000069
:020000040000fa
:1023d000f0b59b1a9c4619d4002307e00120f0bdfc
:1023e000002a15d001330131634513dc002af7dde3
:1023f0000f000d780478a542f4d100240134a242e4
:10240000ecd03e5d055dae42f8d0ebe70020e6e79c
:082410000120e4e70020e2e7ef
:020000040000fa
:1024180070b5002818d0002918d000250c4a0124ce
:10242800072605e06b00c35a13850135a94209d078
:10243800137e2342fcd053683340012bf2d0435d16
:102448001385f2e7012070bd0020fce70120fae7c0
:04245800001c004222
:020000040000fa
:10245c0010b50c4b1b78002b0cd00b4c21780b4877
:10246c0000f0c6fb2378002b05d00023064a13701e
:10247c00074a537010bd0123034a1370044a53706a
:10248c00f8e7c046c30a0020c50a0020a00e0000d1
:04249c00bc0a002056
:020000040000fa
:1024a00010b50020fff702ff0a48783000f022fb49
:1024b00000220949072000f009fb00f0f1f9074b61
:1024c0001870074b00221a7002325a70fdf79afffb
:1024d000fce7c046200f00005d240000c20a002077
:0424e000bc0a002012
:020000040000fa
:1024e400bff35f8f62b60c4bc12189005a58ff209d
:1024f40082433f3802435a5010221a60c22080009f
:102504001a5806491140c02212020a431a50802266
:1025140092001a607047c04600e100e0ff00ffff30
:020000040000fa
:1025240010b584b001aa0c4b1833110011cb11c1a2
:102534001b880b80094853230370123b4370153bdf
:1025440083700633c370253b0371033b437106213b
:10255400fef732ff04b010bd741c0000100a002006
:020000040000fa
:10256400030010b51a78202a0dd011000939042966
:1025740009d900212b2a02d02d2a01d1013101339e
:1025840000200a2404e00133ece760430133801a9d
:102594001a78303a092af8d9002900d1404210bdee
:020000040000fa
:1025a4000c4a036810b5546a0b4a591e121b914217
:1025b4000bd9002b05d00c220120084b40421a6095
:1025c40010bd102202600020fae70f221733934354
:1025d4000360f8e790090020efffff7fb40a0020b2
:020000040000fa
:1025e400002b11d1002a0fd1002900d1002802d0dc
:1025f4000021c943081c07b4024802a140180290f4
:1026040003bdc046c108000003b4684601b5029882
:10261400fef7c8fc019b9e4602b00cbc7047c04646
:020000040000fa
:10262400f0b5c64600b580460e0000240a4b9d68ee
:102634001f0001e0b44209d2a8470028fad043465b
:10264400185d3b6898470134e4b2f3e7a8470028d3
:0c265400fcd004bc9046f0bd942b0000ac
:020000040000fa
:1026600000b583b00b4b9a6800921b7b6a461371ce
:102670000948212303700b33437005338370243bd7
:10268000c370033b0371053b0521fef797fe03b0c2
:0c26900000bdc046741c0000100a0020b1
:020000040000fa
:10269c0030b583b06c460b4b2433220003cb03c202
:1026ac00094d42232b70353b6b70033bab70200004
:1026bc0000f0a6fbc3b2220003212800fff7c4f9e7
:0c26cc0003b030bd741c0000100a002098
:020000040000fa
:1026d8000309013b1800202b07d90a4a934205d861
:1026e8000948db08c318043b18787047e0223f20ec
:1026f80052019342f9d80448db09c318043b1878ff
:0c2708001030f2e7ff010000701f00001d
:020000040000fa
:102714000b00496810b50200890603d4190000f0c3
:1027240087f810bd190034310978c0b249b281422a
:1027340007d059699c6aa14203d24c1c5c610a709f
:0c274400efe711001800fff761fdeae765
:020000040000fa
:102750001c2101231b04984201d3000c10391b0ad1
:10276000984201d3000a08391b09984201d3000995
:10277000043902a2105c40187047c04604030202ec
:0c27800001010101000000000000000049
:020000040000fa
:10278c000a4b0b4a1a600b4a9a81c02292025a6079
:10279c001a00d369002bfcd1044a136802210b43a5
:1027ac001360d369002bfcd17047c046001c00425b
:0827bc00040120402bf6ffff91
:020000040000fa
:1027c400a4040000c8040000f40400001c05000078
:1027d400400500007e050000ca0500001406000044
:1027e40032060000a4050000ee0500008404000089
:0827f4006e0600002004000045
:020000040000fa
:1027fc00436870b50400d80510d52569954200d9f9
:10280c0015002a00606900f0eafa226963695b1915
:10281c00551b0022636125611a7070bddb06fcd468
:08282c00200000f0c9faf8e7f2
:020000040000fa
:1028340013b50b006a46d41d5a68c1b22170d20583
:1028440005d55a69c0b2541c5c61117016bd0122d1
:102854002100180000f0b4fa002801d02078f5e730
:0628640001204042f2e7f2
:020000040000fa
:02286a00fee787
:020000040000fa
:10286c00444953434f4e4e45435400005354524534
:10287c00414d5f4f50454e004f54415f5245510002
:10288c004f54415f5354415254000000434f4e4e3d
:04289c00454354005c
:020000040000fa
:1028a00070b50b4c65690120a847e4690120a04779
:1028b0000020a847c820a047054bdc681d00a047a2
:1028c000002802d06b689847f9e7013070bdc04618
:0428d000942b000045
:020000040000fa
:1028d400f0b5050000200a4c4200165d002e02d11e
:1028e400a2185078f0bd296801300f78c0b2b74201
:1028f40003d1a2180131507829600a28ecd9f1e7f4
:04290400ac2c0000f7
:020000040000fa
:1029080000b583b0084b1a6800921b796a461371a8
:10291800064824230370437083701f3b0321fef78e
:1029280049fd03b000bdc046741c0000100a002019
:020000040000fa
:10293800f8b5050001262c68344201d000200ee0cd
:102948002000fff7c5fe070000f064f92868a042e0
:10295800f1d1b043281a3900fff72efc0120f8bd49
:020000040000fa
:10296800084a1368002b09d007491818884202d86a
:1029780010601800704701235b42fae7034b1360ad
:10298800f2e7c046b80a0020c80c0020c80a002098
:020000040000fa
:1029980070b5140016000a004e430d00511e8a41fe
:1029a8005242144001003200180000f007fa864233
:0e29b80003d02900fef782fe0400200070bd4f
:020000040000fa
:1029c600f8b5050001276c683c4201d000200de0f7
:1029d6002000fff77efe060000f01df96b68a3429b
:0e29e600f1d128003100fff7e8fb0120f8bd19
:020000040000fa
:1029f400094b5b8b5b070dd0074b80221a76793a23
:102a04005a831b7e5b0705d5034b04211a8d1a7e5e
:0c2a14000a42fbd17047c046001c004283
:020000040000fa
:102a200030b5002a0cd0084b1b6844188018411898
:102a30001b0225782b4301348c42f9d1024a1360e2
:0c2a4000014b186830bdc0469c0a002005
:020000040000fa
:102a4c000a7830b5002a0cd130bd9a4208d1012346
:102a5c00cc5c002cf8d0c55ca54201d10133f7e762
:0c2a6c0001300378002bf0d11800ede7da
:020000040000fa
:102a7800002380290fdb812901dd83290bd1072160
:102a8800136807338b431900083111601a685b68b3
:0a2a9800026043600123180070473c
:020000040000fa
:102aa200020000234832d356591e0b4313700423ed
:102ab2004268134005d01023134343600120404273
:0a2ac20070470364c3631800fae7cd
:020000040000fa
:102acc0030b543001b189b00064ce3181b7adbb295
:102adc00834200d030bd43001d18ad002951601950
:082aec004260f7e71806002024
:020000040000fa
:102af40010b5084c2368196800f06df8012300280c
:102b040005db23680a20196800f0c5f9c30f584291
:082b140010bdc0466c0a002050
:020000040000fa
:102b1c00f7b5002507000c002e000192019b9e4288
:102b2c0001db2800febd62682168380000f03ef829
:082b3c0001362d180834f1e701
:020000040000fa
:102b4400f7b5002507000c002e000192019b9e4260
:102b540001db2800febd62682168380000f096f8a9
:082b640001362d180834f1e7d9
:020000040000fa
:102b6c00012370b544689c43651a102d0ad942188c
:102b7c0019432b431160536008320351416010001c
:062b8c00fef756fb70bdd0
:020000040000fa
:022b920070478a
:020000040000fa
:102b94008b2e0000832e0000932e00002d2e0000ab
:102ba4008b100000e52c0000bb130000752c000006
:042bb400fd0a000016
:020000040000fa
:102bb80010b50c000023002809d10300002a06d014
:102bc80001212000fff754fa0028f9d0012318004a
:022bd80010bd2e
:020000040000fa
:102bda0070b50e00050000f014f93300040002007d
:102bea0001212800fff7d3fe001b431e98414042f3
:022bfa0070bdac
:020000040000fa
:102bfc000fb407b5054b04aa1b6802ca18680192ea
:102c0c0000f076f803b008bc04b018476c0a00203a
:020000040000fa
:102c1c00064b0130c000c258002a05d10200083a08
:102c2c00d21819184a60c2507047c04610040020d0
:020000040000fa
:102c3c00054b9868db68984201d3c01a7047024a6a
:0c2c4c0012691018c01af9e7d009002026
:020000040000fa
:102c5800054ad36a906a834201d8c01a7047024a6b
:0c2c6800126b1018c01af9e7d009002008
:020000040000fa
:102c7400002807d0044b5843002803d00138c0462d
:0c2c84000028fbd17047c04680bb000058
:020000040000fa
:102c900070b50d001400012801d0200070bd210086
:0c2ca0002800fff7b9fb0028f9d0f6e788
:020000040000fa
:102cac0068076c094c836a9074a07ac000806888ad
:0c2cbc0000846c820081286e696c290085
:020000040000fa
:102cc80010b50400fff7e9fe002805d1a368e26803
:0a2cd800a36163619b18a36210bda5
:020000040000fa
:022ce200704739
:020000040000fa
:102ce400002803d0034b80225a617047014b802295
:082cf4009a61fae70044004177
:020000040000fa
:102cfc0013b50400019201aafdf7ecf96368db0639
:082d0c0001d50120404216bd73
:020000040000fa
:102d1400d0400b1cd1409c46203ad3401843524229
:102d240063469340184370479140031c90409c466f
:102d3400203a9340194352426346d34019437047a3
:102d440010b5002903d1fff701fd203002e0081c73
:082d5400fff7fcfc10bdc046b6
:020000040000fa
:102d5c0000b583b06b46d871073301211800fef71c
:062d6c000df803b000bdec
:020000040000fa
:102d7200006810b5002801da002010bdfff7f3fd4e
:062d8200431cfad1f8e742
:020000040000fa
:102d880010b5034b1c69fff755ff013c201a10bd15
:042d9800d00900203e
:020000040000fa
:102d9c0010b5034c01212000fef7f8fb207810bd84
:042dac00c00a002039
:020000040000fa
:102db00010b500f077f8024b1860586010bdc0469f
:042dc000940a002051
:020000040000fa
:102dc400c36a10b5002b01d0984710bd0068fff707
:042dd4005dfffae7be
:020000040000fa
:102dd8004a424a41802310b55200db00fff7c4f98c
:022de80010bd1c
:020000040000fa
:102dea00002310b59a4200d110bdcc5cc454013303
:022dfa00f8e7f8
:020000040000fa
:102dfc0003001218934200d1704719700133f9e7a0
:020000040000fa
:102e0c0003001a78002a01d1181a70470133f8e729
:020000040000fa
:102e1c0010b5fff7c7fffff75efffff75cff10bdb4
:020000040000fa
:0e2e2c0010b5fff713ff431e9841c0b210bd52
:020000040000fa
:0e2e3a0010b500f01df843425841c0b210bd63
:020000040000fa
:0e2e48000300413b192b01d82023184370478b
:020000040000fa
:0e2e56000300613b192b01d85f231840704721
:020000040000fa
:0c2e6400014b82225a6070470040004180
:020000040000fa
:0a2e700010b50068fff70cff10bd5d
:020000040000fa
:082e7a0010b5fff7defe10bdec
:020000040000fa
:082e820010b5fff78aff10bd37
:020000040000fa
:082e8a0010b5fff766ff10bd53
:020000040000fa
:082e920010b5fff7d1ff10bde0
:020000040000fa
:082e9a0010b5fff73afc10bd72
:020000040000fa
:022ea200704777
:020000040000fa
:082ea4000048704750080020af
:020000040000fa
:082eac00012040427047c046be
:020000040000fa
:072eb400286e756c6c29000b
:020000040000fa
:062ebc0000200021704718
:020000040000fa
:042ec2000020704735
:020000040000fa
:042ec8007047c04649
:020000040000fa
:042ecc00002070472b
:020000040000fa
:0200000400807a
:0440000077c700d8a6
:020000040000fa
:0200000400807a
:044004005c00ffff5e
:00000001FF
